S01600006D6173746572636F64656D61696E2E7372656342
S11300000C942A000C9460000C94BE000C944700DD
S11300100C9447000C9447000C9447000C94470040
S11300200C9447000C9447000C9447000C94470030
S11300300C9447000C9447000C9447000C94470020
S11300400C9447000C9447000C9447000C94470010
S11300500C94470011241FBECFE5D4E0DEBFCDBF12
S113006010E0A0E6B0E0EAEBF5E002C005900D92E6
S1130070AE39B107D9F720E0AEE9B0E001C01D9276
S1130080AF39B207E1F70E94C7010C94DB020C946C
S1130090000078948BB7806C8BBF85B78C6085BF6C
S11300A084B3836084BBA89AA998089587E60E94C4
S11300B0DE0181E60E94DE01A89A10929E00089556
S11300C01F920F920FB60F9211242F933F934F93C9
S11300D05F936F937F938F939F93AF93BF93EF93AC
S11300E0FF930E945600FF91EF91BF91AF919F91B2
S11300F08F917F916F915F914F913F912F910F90CD
S11301000FBE0F901F9018950E94E20198B3907F44
S11301108F70892B88BB08951F93CF93DF93CDB73E
S1130120DEB72B970FB6F894DEBF0FBECDBF13E03A
S113013080E690E00E94E601CE0101960E94FC0157
S113014066E670E0CE0101960E94D202892B59F036
S11301508DE690E00E94E6018DE00E94DE011150E0
S113016039F780E001C081E02B960FB6F894DEBF2A
S11301700FBECDBFDF91CF911F9108951F920F92B3
S11301800FB60F9211242F933F934F935F936F9366
S11301907F938F939F93AF93BF93EF93FF930E94AB
S11301A08C00882321F081E080939E0011C00E947E
S11301B056008DE790E00E94E6012FEF33EB84ECCC
S11301C094E02150304080409040D9F700C00000B6
S11301D0FF91EF91BF91AF919F918F917F916F911B
S11301E05F914F913F912F910F900FBE0F901F90F1
S11301F01895CF93DF93A898A99A0E944101C82F1C
S11302000E946B01D82F8AE20E94DE018D2F0E948A
S1130210DE018C2F0E94DE010E948400DF91CF91C9
S113022008959AB321E030E0082E02C0220F331F54
S11302300A94E2F7209529232ABB87B986B18768F7
S113024086B90895369A349BFECF24B135B148EE71
S113025053E0849FD001859FB00D11240E94270292
S1130260349ADC01CB01072E7AE0B695A7959795D1
S113027087957A95D1F7702D089587B1807F87B9D6
S11302800895CF92DF92EF92FF9280E00E941101D5
S113029085E00E9422016AE070E00E9413026B0173
S11302A0770FEE08FF080E943D0184E1C816D104CF
S11302B0E104F10440F08AE1C816D104E104F10438
S11302C020F083E603C081E601C082E6FF90EF9050
S11302D0DF90CF9008959F92AF92BF92CF92DF921A
S11302E0EF92FF920F931F93CF93DF9381E00E94CD
S11302F0110185E00E942201D92F982EC92FCC0F1D
S1130300CC0B0E943D0120E030E040E050E060E092
S113031070E080E090E0A92CBD2ECC2EDC2EEC2EDB
S1130320FC2E0C2F1C2F0E94A60202E00E948D02BC
S11303300C2F0E94A60201E00E948D02205B3C4328
S11303404F4F5F4F6F4F7F4F8F4F9F4F0C2F0E9428
S11303503002822F932F8A30910540F08436910524
S113036038F0843F914030F084E605C087E603C04E
S113037086E601C085E6DF91CF911F910F91FF9032
S1130380EF90DF90CF90BF90AF909F90089587B388
S11303908F6087BB87E690E00E94D7010E944900E6
S11303A080919E008823E1F30E94F900F9CF90BD6B
S11303B089B988E18AB986E880BD08955D9BFECF3E
S11303C08CB908955F9BFECF8CB108950F931F9352
S11303D0CF93FC018081882359F08F01C0E00E94F3
S11303E0DE01CF5FF801EC0FF11D80818111F7CFA1
S11303F0CF911F910F9108950F931F93CF938C0169
S1130400C0E00E94E201F801EC0FF11D8083CF5F90
S11304108332B9F70C0F111DF80131971082CF9177
S11304201F910F91089597FB072E16F4009407D09F
S113043077FD09D00E94AF0207FC05D03EF49095E9
S113044081959F4F0895709561957F4F08950E94FF
S1130450C302B7FF0895821B930B0895689401C0EB
S1130460E8948F929F92CF93DF930E943C02DF9196
S1130470CF919F908F90089588249924F401E401EA
S1130480B0E49F93AA279A158B049C04ED05FE05FE
S1130490CF05D007A10798F4AD2FDC2FCF2FFE2F67
S11304A0E92D982C892E982F872F762F652F542F7E
S11304B0432F322F2227B85031F7BF9127C01B2E6C
S11304C0BF91BB27220F331F441F551F661F771F81
S11304D0881F991F881C991CEE1FFF1FCC1FDD1F4E
S11304E0AA1FBB1F8A149B04EC05FD05CE05DF057E
S11304F0A007B10748F08A189B08EC09FD09CE094A
S1130500DF09A00BB10B21601A94E1F62EF49401DB
S1130510AF01BE01CD01000C08950F93083090F097
S1130520982F872F762F652F542F432F322F222772
S11305300850F4CF220F331F441F551F661F771F27
S1130540881F991F0A95B2F70F9108952A193B093C
S11305504C095D096E097F09800B910B0895AA1B54
S1130560BB1B51E107C0AA1FBB1FA617B70710F09A
S1130570A61BB70B881F991F5A95A9F780959095CC
S1130580BC01CD010895A29FB001B39FC001A39FF8
S1130590700D811D1124911DB29F700D811D1124B8
S11305A0911D0895FB01DC018D91019080190110CA
S10D05B0D9F3990B0895F894FFCFD6
S11305BA50494E3A20003132333435360057726F7F
S11305CA6E672050617373776F72642E00426C6F8A
S11305DA636B696E672073797374656D20666F72D5
S11105EA203330207365636F6E64732E00003F
S9030000FC
