S013000068616E646C6572636F64652E7372656398
S11300000C942A000C9434000C9434000C943400A6
S11300100C9434000C9434000C9434000C9434008C
S11300200C9434000C9434000C9434000C9434007C
S11300300C9434000C9434000C9434000C9434006C
S11300400C9434000C9434000C9434000C9434005C
S11300500C94340011241FBECFE5D4E0DEBFCDBF25
S11300600E947B000C94A0000C9400000E949C0051
S1130070823649F0833659F0813671F488B38C7F27
S113008088BB80E00895C09AC19881E0089588B340
S1130090836088BB82E0089580E008950E949C00FC
S11300A0853699F018F48436B1F01AC0863639F0E2
S11300B08736B1F48BB3887F8BBB80E00895D89AE0
S11300C08BB3897F8BBB81E008958BB383608BBB3B
S11300D0DA9882E008958BB387608BBB83E0089540
S11300E080E00895CF930E944E00C82F0E943600EE
S11300F08C0FCF9108958AB387608ABB87B38360DE
S113010087BB87E690E00E94910080E00E949800FF
S11301100E949C008A32E1F70E9472000E949800BB
S1130120F7CF90BD89B988E18AB986E880BD089582
S11301305D9BFECF8CB908955F9BFECF8CB1089573
S1070140F894FFCF5D
S9030000FC
